{
  "contractName": "Wallet",
  "abi": [
    {
      "anonymous": false,
      "inputs": [
        {
          "indexed": true,
          "internalType": "address",
          "name": "previousOwner",
          "type": "address"
        },
        {
          "indexed": true,
          "internalType": "address",
          "name": "newOwner",
          "type": "address"
        }
      ],
      "name": "OwnershipTransferred",
      "type": "event"
    },
    {
      "inputs": [
        {
          "internalType": "address",
          "name": "",
          "type": "address"
        },
        {
          "internalType": "bytes32",
          "name": "",
          "type": "bytes32"
        }
      ],
      "name": "balances",
      "outputs": [
        {
          "internalType": "uint256",
          "name": "",
          "type": "uint256"
        }
      ],
      "stateMutability": "view",
      "type": "function"
    },
    {
      "inputs": [],
      "name": "owner",
      "outputs": [
        {
          "internalType": "address",
          "name": "",
          "type": "address"
        }
      ],
      "stateMutability": "view",
      "type": "function"
    },
    {
      "inputs": [],
      "name": "renounceOwnership",
      "outputs": [],
      "stateMutability": "nonpayable",
      "type": "function"
    },
    {
      "inputs": [
        {
          "internalType": "uint256",
          "name": "",
          "type": "uint256"
        }
      ],
      "name": "tickers",
      "outputs": [
        {
          "internalType": "bytes32",
          "name": "",
          "type": "bytes32"
        }
      ],
      "stateMutability": "view",
      "type": "function"
    },
    {
      "inputs": [
        {
          "internalType": "bytes32",
          "name": "",
          "type": "bytes32"
        }
      ],
      "name": "tokenMapping",
      "outputs": [
        {
          "internalType": "bytes32",
          "name": "ticker",
          "type": "bytes32"
        },
        {
          "internalType": "address",
          "name": "tokenAddress",
          "type": "address"
        }
      ],
      "stateMutability": "view",
      "type": "function"
    },
    {
      "inputs": [
        {
          "internalType": "address",
          "name": "newOwner",
          "type": "address"
        }
      ],
      "name": "transferOwnership",
      "outputs": [],
      "stateMutability": "nonpayable",
      "type": "function"
    },
    {
      "inputs": [
        {
          "internalType": "bytes32",
          "name": "ticker",
          "type": "bytes32"
        },
        {
          "internalType": "address",
          "name": "tokenAddr",
          "type": "address"
        }
      ],
      "name": "addToken",
      "outputs": [],
      "stateMutability": "nonpayable",
      "type": "function"
    },
    {
      "inputs": [
        {
          "internalType": "uint256",
          "name": "amount",
          "type": "uint256"
        },
        {
          "internalType": "bytes32",
          "name": "ticker",
          "type": "bytes32"
        }
      ],
      "name": "deposit",
      "outputs": [],
      "stateMutability": "nonpayable",
      "type": "function"
    },
    {
      "inputs": [],
      "name": "depositEth",
      "outputs": [],
      "stateMutability": "payable",
      "type": "function"
    },
    {
      "inputs": [
        {
          "internalType": "uint256",
          "name": "amount",
          "type": "uint256"
        },
        {
          "internalType": "bytes32",
          "name": "ticker",
          "type": "bytes32"
        }
      ],
      "name": "withdraw",
      "outputs": [],
      "stateMutability": "nonpayable",
      "type": "function"
    }
  ],
  "bytecode": "0x608060405234801561001057600080fd5b5061002d61002261003260201b60201c565b61003a60201b60201c565b6100fe565b600033905090565b60008060009054906101000a900473ffffffffffffffffffffffffffffffffffffffff169050816000806101000a81548173ffffffffffffffffffffffffffffffffffffffff021916908373ffffffffffffffffffffffffffffffffffffffff1602179055508173ffffffffffffffffffffffffffffffffffffffff168173ffffffffffffffffffffffffffffffffffffffff167f8be0079c531659141344cd1fd0a4f28419497f9722a3daafe3b4186f6b6457e060405160405180910390a35050565b6113588061010d6000396000f3fe6080604052600436106100915760003560e01c80639776aacf116100595780639776aacf1461015d578063a8d2021a14610186578063c45c98e2146101af578063c9630cb0146101ec578063f2fde38b1461021557610091565b80631f14df6914610096578063439370b1146100d3578063667cb4ba146100dd578063715018a61461011b5780638da5cb5b14610132575b600080fd5b3480156100a257600080fd5b506100bd60048036038101906100b89190610d6e565b61023e565b6040516100ca919061118f565b60405180910390f35b6100db610263565b005b3480156100e957600080fd5b5061010460048036038101906100ff9190610dd3565b61035c565b6040516101129291906110c6565b60405180910390f35b34801561012757600080fd5b506101306103a0565b005b34801561013e57600080fd5b50610147610428565b6040516101549190611030565b60405180910390f35b34801561016957600080fd5b50610184600480360381019061017f9190610dfc565b610451565b005b34801561019257600080fd5b506101ad60048036038101906101a89190610e61565b6105f4565b005b3480156101bb57600080fd5b506101d660048036038101906101d19190610e38565b6108ae565b6040516101e391906110ab565b60405180910390f35b3480156101f857600080fd5b50610213600480360381019061020e9190610e61565b6108d2565b005b34801561022157600080fd5b5061023c60048036038101906102379190610d45565b610b01565b005b6001602052816000526040600020602052806000526040600020600091509150505481565b6102e634600160003373ffffffffffffffffffffffffffffffffffffffff1673ffffffffffffffffffffffffffffffffffffffff16815260200190815260200160002060007f4554480000000000000000000000000000000000000000000000000000000000815260200190815260200160002054610bf990919063ffffffff16565b600160003373ffffffffffffffffffffffffffffffffffffffff1673ffffffffffffffffffffffffffffffffffffffff16815260200190815260200160002060007f4554480000000000000000000000000000000000000000000000000000000000815260200190815260200160002081905550565b60026020528060005260406000206000915090508060000154908060010160009054906101000a900473ffffffffffffffffffffffffffffffffffffffff16905082565b6103a8610c0f565b73ffffffffffffffffffffffffffffffffffffffff166103c6610428565b73ffffffffffffffffffffffffffffffffffffffff161461041c576040517f08c379a00000000000000000000000000000000000000000000000000000000081526004016104139061110f565b60405180910390fd5b6104266000610c17565b565b60008060009054906101000a900473ffffffffffffffffffffffffffffffffffffffff16905090565b610459610c0f565b73ffffffffffffffffffffffffffffffffffffffff16610477610428565b73ffffffffffffffffffffffffffffffffffffffff16146104cd576040517f08c379a00000000000000000000000000000000000000000000000000000000081526004016104c49061110f565b60405180910390fd5b600073ffffffffffffffffffffffffffffffffffffffff166002600084815260200190815260200160002060010160009054906101000a900473ffffffffffffffffffffffffffffffffffffffff1673ffffffffffffffffffffffffffffffffffffffff1614610572576040517f08c379a00000000000000000000000000000000000000000000000000000000081526004016105699061114f565b60405180910390fd5b806002600084815260200190815260200160002060010160006101000a81548173ffffffffffffffffffffffffffffffffffffffff021916908373ffffffffffffffffffffffffffffffffffffffff16021790555060038290806001815401808255809150506001900390600052602060002001600090919091909150555050565b80600073ffffffffffffffffffffffffffffffffffffffff166002600083815260200190815260200160002060010160009054906101000a900473ffffffffffffffffffffffffffffffffffffffff1673ffffffffffffffffffffffffffffffffffffffff16141561069b576040517f08c379a00000000000000000000000000000000000000000000000000000000081526004016106929061116f565b60405180910390fd5b82600160003373ffffffffffffffffffffffffffffffffffffffff1673ffffffffffffffffffffffffffffffffffffffff168152602001908152602001600020600084815260200190815260200160002054101561072e576040517f08c379a00000000000000000000000000000000000000000000000000000000081526004016107259061112f565b60405180910390fd5b61079183600160003373ffffffffffffffffffffffffffffffffffffffff1673ffffffffffffffffffffffffffffffffffffffff168152602001908152602001600020600085815260200190815260200160002054610cdb90919063ffffffff16565b600160003373ffffffffffffffffffffffffffffffffffffffff1673ffffffffffffffffffffffffffffffffffffffff1681526020019081526020016000206000848152602001908152602001600020819055506002600083815260200190815260200160002060010160009054906101000a900473ffffffffffffffffffffffffffffffffffffffff1673ffffffffffffffffffffffffffffffffffffffff1663a9059cbb33856040518363ffffffff1660e01b8152600401610856929190611082565b602060405180830381600087803b15801561087057600080fd5b505af1158015610884573d6000803e3d6000fd5b505050506040513d601f19601f820116820180604052508101906108a89190610daa565b50505050565b600381815481106108be57600080fd5b906000526020600020016000915090505481565b80600073ffffffffffffffffffffffffffffffffffffffff166002600083815260200190815260200160002060010160009054906101000a900473ffffffffffffffffffffffffffffffffffffffff1673ffffffffffffffffffffffffffffffffffffffff161415610979576040517f08c379a00000000000000000000000000000000000000000000000000000000081526004016109709061116f565b60405180910390fd5b60006002600084815260200190815260200160002060010160009054906101000a900473ffffffffffffffffffffffffffffffffffffffff1690508073ffffffffffffffffffffffffffffffffffffffff166323b872dd3330876040518463ffffffff1660e01b81526004016109f19392919061104b565b602060405180830381600087803b158015610a0b57600080fd5b505af1158015610a1f573d6000803e3d6000fd5b505050506040513d601f19601f82011682018060405250810190610a439190610daa565b50610aa784600160003373ffffffffffffffffffffffffffffffffffffffff1673ffffffffffffffffffffffffffffffffffffffff168152602001908152602001600020600086815260200190815260200160002054610bf990919063ffffffff16565b600160003373ffffffffffffffffffffffffffffffffffffffff1673ffffffffffffffffffffffffffffffffffffffff16815260200190815260200160002060008581526020019081526020016000208190555050505050565b610b09610c0f565b73ffffffffffffffffffffffffffffffffffffffff16610b27610428565b73ffffffffffffffffffffffffffffffffffffffff1614610b7d576040517f08c379a0000000000000000000000000000000000000000000000000000000008152600401610b749061110f565b60405180910390fd5b600073ffffffffffffffffffffffffffffffffffffffff168173ffffffffffffffffffffffffffffffffffffffff161415610bed576040517f08c379a0000000000000000000000000000000000000000000000000000000008152600401610be4906110ef565b60405180910390fd5b610bf681610c17565b50565b60008183610c0791906111bb565b905092915050565b600033905090565b60008060009054906101000a900473ffffffffffffffffffffffffffffffffffffffff169050816000806101000a81548173ffffffffffffffffffffffffffffffffffffffff021916908373ffffffffffffffffffffffffffffffffffffffff1602179055508173ffffffffffffffffffffffffffffffffffffffff168173ffffffffffffffffffffffffffffffffffffffff167f8be0079c531659141344cd1fd0a4f28419497f9722a3daafe3b4186f6b6457e060405160405180910390a35050565b60008183610ce99190611211565b905092915050565b600081359050610d00816112c6565b92915050565b600081519050610d15816112dd565b92915050565b600081359050610d2a816112f4565b92915050565b600081359050610d3f8161130b565b92915050565b600060208284031215610d5757600080fd5b6000610d6584828501610cf1565b91505092915050565b60008060408385031215610d8157600080fd5b6000610d8f85828601610cf1565b9250506020610da085828601610d1b565b9150509250929050565b600060208284031215610dbc57600080fd5b6000610dca84828501610d06565b91505092915050565b600060208284031215610de557600080fd5b6000610df384828501610d1b565b91505092915050565b60008060408385031215610e0f57600080fd5b6000610e1d85828601610d1b565b9250506020610e2e85828601610cf1565b9150509250929050565b600060208284031215610e4a57600080fd5b6000610e5884828501610d30565b91505092915050565b60008060408385031215610e7457600080fd5b6000610e8285828601610d30565b9250506020610e9385828601610d1b565b9150509250929050565b610ea681611245565b82525050565b610eb581611263565b82525050565b6000610ec86026836111aa565b91507f4f776e61626c653a206e6577206f776e657220697320746865207a65726f206160008301527f64647265737300000000000000000000000000000000000000000000000000006020830152604082019050919050565b6000610f2e6020836111aa565b91507f4f776e61626c653a2063616c6c6572206973206e6f7420746865206f776e65726000830152602082019050919050565b6000610f6e6012836111aa565b91507f696e73756666696369656e742066756e647300000000000000000000000000006000830152602082019050919050565b6000610fae6014836111aa565b91507f746f6b656e20616c7265616479206578697374730000000000000000000000006000830152602082019050919050565b6000610fee6014836111aa565b91507f746f6b656e20646f6573206e6f742065786973740000000000000000000000006000830152602082019050919050565b61102a8161128d565b82525050565b60006020820190506110456000830184610e9d565b92915050565b60006060820190506110606000830186610e9d565b61106d6020830185610e9d565b61107a6040830184611021565b949350505050565b60006040820190506110976000830185610e9d565b6110a46020830184611021565b9392505050565b60006020820190506110c06000830184610eac565b92915050565b60006040820190506110db6000830185610eac565b6110e86020830184610e9d565b9392505050565b6000602082019050818103600083015261110881610ebb565b9050919050565b6000602082019050818103600083015261112881610f21565b9050919050565b6000602082019050818103600083015261114881610f61565b9050919050565b6000602082019050818103600083015261116881610fa1565b9050919050565b6000602082019050818103600083015261118881610fe1565b9050919050565b60006020820190506111a46000830184611021565b92915050565b600082825260208201905092915050565b60006111c68261128d565b91506111d18361128d565b9250827fffffffffffffffffffffffffffffffffffffffffffffffffffffffffffffffff0382111561120657611205611297565b5b828201905092915050565b600061121c8261128d565b91506112278361128d565b92508282101561123a57611239611297565b5b828203905092915050565b60006112508261126d565b9050919050565b60008115159050919050565b6000819050919050565b600073ffffffffffffffffffffffffffffffffffffffff82169050919050565b6000819050919050565b7f4e487b7100000000000000000000000000000000000000000000000000000000600052601160045260246000fd5b6112cf81611245565b81146112da57600080fd5b50565b6112e681611257565b81146112f157600080fd5b50565b6112fd81611263565b811461130857600080fd5b50565b6113148161128d565b811461131f57600080fd5b5056fea264697066735822122037884752df4c1d1bb9e65adeeaf5c9515477aa3909213f8147f6cc8ca25abbf364736f6c63430008000033",
  "immutableReferences": {},
  "source": "// SPDX-License-Identifier: MIT\npragma solidity ^0.8.0;\n\nimport \"../node_modules/@openzeppelin/contracts/token/ERC20/IERC20.sol\";\nimport \"../node_modules/@openzeppelin/contracts/utils/math/SafeMath.sol\";\nimport \"../node_modules/@openzeppelin/contracts/access/Ownable.sol\";\n\ncontract Wallet is Ownable {\n    using SafeMath for uint256;\n\n    struct Token {\n        bytes32 ticker;\n        address tokenAddress;\n    }\n\n    mapping(address => mapping(bytes32 => uint256)) public balances;\n\n    mapping(bytes32 => Token) public tokenMapping;\n\n    bytes32[] public tickers;\n\n    modifier tokenExists(bytes32 ticker) {\n        require(\n            tokenMapping[ticker].tokenAddress != address(0),\n            \"token does not exist\"\n        );\n        _;\n    }\n\n    function addToken(bytes32 ticker, address tokenAddr) external onlyOwner {\n        require(\n            tokenMapping[ticker].tokenAddress == address(0),\n            \"token already exists\"\n        );\n        tokenMapping[ticker].tokenAddress = tokenAddr;\n        tickers.push(ticker);\n    }\n\n    function deposit(uint256 amount, bytes32 ticker)\n        external\n        tokenExists(ticker)\n    {\n        IERC20 tokenInstance = IERC20(tokenMapping[ticker].tokenAddress);\n        tokenInstance.transferFrom(msg.sender, address(this), amount);\n        balances[msg.sender][ticker] = balances[msg.sender][ticker].add(amount);\n    }\n\n    function depositEth() external payable {\n        balances[msg.sender][bytes32(\"ETH\")] = balances[msg.sender][\n            bytes32(\"ETH\")\n        ].add(msg.value);\n    }\n\n    function withdraw(uint256 amount, bytes32 ticker)\n        external\n        tokenExists(ticker)\n    {\n        require(balances[msg.sender][ticker] >= amount, \"insufficient funds\");\n        balances[msg.sender][ticker] = balances[msg.sender][ticker].sub(amount);\n        IERC20(tokenMapping[ticker].tokenAddress).transfer(msg.sender, amount);\n    }\n}\n",
  "sourcePath": "/Users/giuseppe/Desktop/Ethereum/DEX/contracts/wallet.sol",
  "compiler": {
    "name": "solc",
    "version": "0.8.0+commit.c7dfd78e.Emscripten.clang"
  },
  "schemaVersion": "3.4.3",
  "updatedAt": "2022-03-22T18:10:42.982Z",
  "devdoc": {
    "kind": "dev",
    "methods": {
      "owner()": {
        "details": "Returns the address of the current owner."
      },
      "renounceOwnership()": {
        "details": "Leaves the contract without owner. It will not be possible to call `onlyOwner` functions anymore. Can only be called by the current owner. NOTE: Renouncing ownership will leave the contract without an owner, thereby removing any functionality that is only available to the owner."
      },
      "transferOwnership(address)": {
        "details": "Transfers ownership of the contract to a new account (`newOwner`). Can only be called by the current owner."
      }
    },
    "version": 1
  },
  "userdoc": {
    "kind": "user",
    "methods": {},
    "version": 1
  }
}