{
  "contractName": "Wallet",
  "abi": [
    {
      "anonymous": false,
      "inputs": [
        {
          "indexed": true,
          "internalType": "address",
          "name": "previousOwner",
          "type": "address"
        },
        {
          "indexed": true,
          "internalType": "address",
          "name": "newOwner",
          "type": "address"
        }
      ],
      "name": "OwnershipTransferred",
      "type": "event"
    },
    {
      "inputs": [
        {
          "internalType": "address",
          "name": "",
          "type": "address"
        },
        {
          "internalType": "bytes32",
          "name": "",
          "type": "bytes32"
        }
      ],
      "name": "balances",
      "outputs": [
        {
          "internalType": "uint256",
          "name": "",
          "type": "uint256"
        }
      ],
      "stateMutability": "view",
      "type": "function",
      "constant": true
    },
    {
      "inputs": [],
      "name": "owner",
      "outputs": [
        {
          "internalType": "address",
          "name": "",
          "type": "address"
        }
      ],
      "stateMutability": "view",
      "type": "function",
      "constant": true
    },
    {
      "inputs": [],
      "name": "renounceOwnership",
      "outputs": [],
      "stateMutability": "nonpayable",
      "type": "function"
    },
    {
      "inputs": [
        {
          "internalType": "uint256",
          "name": "",
          "type": "uint256"
        }
      ],
      "name": "tickers",
      "outputs": [
        {
          "internalType": "bytes32",
          "name": "",
          "type": "bytes32"
        }
      ],
      "stateMutability": "view",
      "type": "function",
      "constant": true
    },
    {
      "inputs": [
        {
          "internalType": "bytes32",
          "name": "",
          "type": "bytes32"
        }
      ],
      "name": "tokenMapping",
      "outputs": [
        {
          "internalType": "bytes32",
          "name": "ticker",
          "type": "bytes32"
        },
        {
          "internalType": "address",
          "name": "tokenAddress",
          "type": "address"
        }
      ],
      "stateMutability": "view",
      "type": "function",
      "constant": true
    },
    {
      "inputs": [
        {
          "internalType": "address",
          "name": "newOwner",
          "type": "address"
        }
      ],
      "name": "transferOwnership",
      "outputs": [],
      "stateMutability": "nonpayable",
      "type": "function"
    },
    {
      "inputs": [
        {
          "internalType": "bytes32",
          "name": "ticker",
          "type": "bytes32"
        },
        {
          "internalType": "address",
          "name": "tokenAddr",
          "type": "address"
        }
      ],
      "name": "addToken",
      "outputs": [],
      "stateMutability": "nonpayable",
      "type": "function"
    },
    {
      "inputs": [
        {
          "internalType": "uint256",
          "name": "amount",
          "type": "uint256"
        },
        {
          "internalType": "bytes32",
          "name": "ticker",
          "type": "bytes32"
        }
      ],
      "name": "deposit",
      "outputs": [],
      "stateMutability": "nonpayable",
      "type": "function"
    },
    {
      "inputs": [
        {
          "internalType": "uint256",
          "name": "amount",
          "type": "uint256"
        },
        {
          "internalType": "bytes32",
          "name": "ticker",
          "type": "bytes32"
        }
      ],
      "name": "withdraw",
      "outputs": [],
      "stateMutability": "nonpayable",
      "type": "function"
    }
  ],
  "bytecode": "0x608060405234801561001057600080fd5b5061002d61002261003260201b60201c565b61003a60201b60201c565b6100fe565b600033905090565b60008060009054906101000a900473ffffffffffffffffffffffffffffffffffffffff169050816000806101000a81548173ffffffffffffffffffffffffffffffffffffffff021916908373ffffffffffffffffffffffffffffffffffffffff1602179055508173ffffffffffffffffffffffffffffffffffffffff168173ffffffffffffffffffffffffffffffffffffffff167f8be0079c531659141344cd1fd0a4f28419497f9722a3daafe3b4186f6b6457e060405160405180910390a35050565b6111e28061010d6000396000f3fe608060405234801561001057600080fd5b50600436106100935760003560e01c80639776aacf116100665780639776aacf14610121578063a8d2021a1461013d578063c45c98e214610159578063c9630cb014610189578063f2fde38b146101a557610093565b80631f14df6914610098578063667cb4ba146100c8578063715018a6146100f95780638da5cb5b14610103575b600080fd5b6100b260048036038101906100ad9190610bf8565b6101c1565b6040516100bf9190611019565b60405180910390f35b6100e260048036038101906100dd9190610c5d565b6101e6565b6040516100f0929190610f50565b60405180910390f35b61010161022a565b005b61010b6102b2565b6040516101189190610eba565b60405180910390f35b61013b60048036038101906101369190610c86565b6102db565b005b61015760048036038101906101529190610ceb565b61047e565b005b610173600480360381019061016e9190610cc2565b610738565b6040516101809190610f35565b60405180910390f35b6101a3600480360381019061019e9190610ceb565b61075c565b005b6101bf60048036038101906101ba9190610bcf565b61098b565b005b6001602052816000526040600020602052806000526040600020600091509150505481565b60026020528060005260406000206000915090508060000154908060010160009054906101000a900473ffffffffffffffffffffffffffffffffffffffff16905082565b610232610a83565b73ffffffffffffffffffffffffffffffffffffffff166102506102b2565b73ffffffffffffffffffffffffffffffffffffffff16146102a6576040517f08c379a000000000000000000000000000000000000000000000000000000000815260040161029d90610f99565b60405180910390fd5b6102b06000610a8b565b565b60008060009054906101000a900473ffffffffffffffffffffffffffffffffffffffff16905090565b6102e3610a83565b73ffffffffffffffffffffffffffffffffffffffff166103016102b2565b73ffffffffffffffffffffffffffffffffffffffff1614610357576040517f08c379a000000000000000000000000000000000000000000000000000000000815260040161034e90610f99565b60405180910390fd5b600073ffffffffffffffffffffffffffffffffffffffff166002600084815260200190815260200160002060010160009054906101000a900473ffffffffffffffffffffffffffffffffffffffff1673ffffffffffffffffffffffffffffffffffffffff16146103fc576040517f08c379a00000000000000000000000000000000000000000000000000000000081526004016103f390610fd9565b60405180910390fd5b806002600084815260200190815260200160002060010160006101000a81548173ffffffffffffffffffffffffffffffffffffffff021916908373ffffffffffffffffffffffffffffffffffffffff16021790555060038290806001815401808255809150506001900390600052602060002001600090919091909150555050565b80600073ffffffffffffffffffffffffffffffffffffffff166002600083815260200190815260200160002060010160009054906101000a900473ffffffffffffffffffffffffffffffffffffffff1673ffffffffffffffffffffffffffffffffffffffff161415610525576040517f08c379a000000000000000000000000000000000000000000000000000000000815260040161051c90610ff9565b60405180910390fd5b82600160003373ffffffffffffffffffffffffffffffffffffffff1673ffffffffffffffffffffffffffffffffffffffff16815260200190815260200160002060008481526020019081526020016000205410156105b8576040517f08c379a00000000000000000000000000000000000000000000000000000000081526004016105af90610fb9565b60405180910390fd5b61061b83600160003373ffffffffffffffffffffffffffffffffffffffff1673ffffffffffffffffffffffffffffffffffffffff168152602001908152602001600020600085815260200190815260200160002054610b4f90919063ffffffff16565b600160003373ffffffffffffffffffffffffffffffffffffffff1673ffffffffffffffffffffffffffffffffffffffff1681526020019081526020016000206000848152602001908152602001600020819055506002600083815260200190815260200160002060010160009054906101000a900473ffffffffffffffffffffffffffffffffffffffff1673ffffffffffffffffffffffffffffffffffffffff1663a9059cbb33856040518363ffffffff1660e01b81526004016106e0929190610f0c565b602060405180830381600087803b1580156106fa57600080fd5b505af115801561070e573d6000803e3d6000fd5b505050506040513d601f19601f820116820180604052508101906107329190610c34565b50505050565b6003818154811061074857600080fd5b906000526020600020016000915090505481565b80600073ffffffffffffffffffffffffffffffffffffffff166002600083815260200190815260200160002060010160009054906101000a900473ffffffffffffffffffffffffffffffffffffffff1673ffffffffffffffffffffffffffffffffffffffff161415610803576040517f08c379a00000000000000000000000000000000000000000000000000000000081526004016107fa90610ff9565b60405180910390fd5b60006002600084815260200190815260200160002060010160009054906101000a900473ffffffffffffffffffffffffffffffffffffffff1690508073ffffffffffffffffffffffffffffffffffffffff166323b872dd3330876040518463ffffffff1660e01b815260040161087b93929190610ed5565b602060405180830381600087803b15801561089557600080fd5b505af11580156108a9573d6000803e3d6000fd5b505050506040513d601f19601f820116820180604052508101906108cd9190610c34565b5061093184600160003373ffffffffffffffffffffffffffffffffffffffff1673ffffffffffffffffffffffffffffffffffffffff168152602001908152602001600020600086815260200190815260200160002054610b6590919063ffffffff16565b600160003373ffffffffffffffffffffffffffffffffffffffff1673ffffffffffffffffffffffffffffffffffffffff16815260200190815260200160002060008581526020019081526020016000208190555050505050565b610993610a83565b73ffffffffffffffffffffffffffffffffffffffff166109b16102b2565b73ffffffffffffffffffffffffffffffffffffffff1614610a07576040517f08c379a00000000000000000000000000000000000000000000000000000000081526004016109fe90610f99565b60405180910390fd5b600073ffffffffffffffffffffffffffffffffffffffff168173ffffffffffffffffffffffffffffffffffffffff161415610a77576040517f08c379a0000000000000000000000000000000000000000000000000000000008152600401610a6e90610f79565b60405180910390fd5b610a8081610a8b565b50565b600033905090565b60008060009054906101000a900473ffffffffffffffffffffffffffffffffffffffff169050816000806101000a81548173ffffffffffffffffffffffffffffffffffffffff021916908373ffffffffffffffffffffffffffffffffffffffff1602179055508173ffffffffffffffffffffffffffffffffffffffff168173ffffffffffffffffffffffffffffffffffffffff167f8be0079c531659141344cd1fd0a4f28419497f9722a3daafe3b4186f6b6457e060405160405180910390a35050565b60008183610b5d919061109b565b905092915050565b60008183610b739190611045565b905092915050565b600081359050610b8a81611150565b92915050565b600081519050610b9f81611167565b92915050565b600081359050610bb48161117e565b92915050565b600081359050610bc981611195565b92915050565b600060208284031215610be157600080fd5b6000610bef84828501610b7b565b91505092915050565b60008060408385031215610c0b57600080fd5b6000610c1985828601610b7b565b9250506020610c2a85828601610ba5565b9150509250929050565b600060208284031215610c4657600080fd5b6000610c5484828501610b90565b91505092915050565b600060208284031215610c6f57600080fd5b6000610c7d84828501610ba5565b91505092915050565b60008060408385031215610c9957600080fd5b6000610ca785828601610ba5565b9250506020610cb885828601610b7b565b9150509250929050565b600060208284031215610cd457600080fd5b6000610ce284828501610bba565b91505092915050565b60008060408385031215610cfe57600080fd5b6000610d0c85828601610bba565b9250506020610d1d85828601610ba5565b9150509250929050565b610d30816110cf565b82525050565b610d3f816110ed565b82525050565b6000610d52602683611034565b91507f4f776e61626c653a206e6577206f776e657220697320746865207a65726f206160008301527f64647265737300000000000000000000000000000000000000000000000000006020830152604082019050919050565b6000610db8602083611034565b91507f4f776e61626c653a2063616c6c6572206973206e6f7420746865206f776e65726000830152602082019050919050565b6000610df8601283611034565b91507f696e73756666696369656e742066756e647300000000000000000000000000006000830152602082019050919050565b6000610e38601483611034565b91507f746f6b656e20616c7265616479206578697374730000000000000000000000006000830152602082019050919050565b6000610e78601483611034565b91507f746f6b656e20646f6573206e6f742065786973740000000000000000000000006000830152602082019050919050565b610eb481611117565b82525050565b6000602082019050610ecf6000830184610d27565b92915050565b6000606082019050610eea6000830186610d27565b610ef76020830185610d27565b610f046040830184610eab565b949350505050565b6000604082019050610f216000830185610d27565b610f2e6020830184610eab565b9392505050565b6000602082019050610f4a6000830184610d36565b92915050565b6000604082019050610f656000830185610d36565b610f726020830184610d27565b9392505050565b60006020820190508181036000830152610f9281610d45565b9050919050565b60006020820190508181036000830152610fb281610dab565b9050919050565b60006020820190508181036000830152610fd281610deb565b9050919050565b60006020820190508181036000830152610ff281610e2b565b9050919050565b6000602082019050818103600083015261101281610e6b565b9050919050565b600060208201905061102e6000830184610eab565b92915050565b600082825260208201905092915050565b600061105082611117565b915061105b83611117565b9250827fffffffffffffffffffffffffffffffffffffffffffffffffffffffffffffffff038211156110905761108f611121565b5b828201905092915050565b60006110a682611117565b91506110b183611117565b9250828210156110c4576110c3611121565b5b828203905092915050565b60006110da826110f7565b9050919050565b60008115159050919050565b6000819050919050565b600073ffffffffffffffffffffffffffffffffffffffff82169050919050565b6000819050919050565b7f4e487b7100000000000000000000000000000000000000000000000000000000600052601160045260246000fd5b611159816110cf565b811461116457600080fd5b50565b611170816110e1565b811461117b57600080fd5b50565b611187816110ed565b811461119257600080fd5b50565b61119e81611117565b81146111a957600080fd5b5056fea2646970667358221220d70a3be4b3d1fa67c020d49f54999e78a70dff0d7763c15c5cdbf6f08c8be83564736f6c63430008000033",
  "immutableReferences": {},
  "source": "// SPDX-License-Identifier: MIT\npragma solidity ^0.8.0;\n\nimport \"../node_modules/@openzeppelin/contracts/token/ERC20/IERC20.sol\";\nimport \"../node_modules/@openzeppelin/contracts/utils/math/SafeMath.sol\";\nimport \"../node_modules/@openzeppelin/contracts/access/Ownable.sol\";\n\n\ncontract Wallet is Ownable {\n\n    using SafeMath for uint;\n\n    struct Token {\n        bytes32 ticker;\n        address tokenAddress;\n    }\n\n    mapping (address => mapping (bytes32 => uint)) public balances;\n\n    mapping (bytes32 => Token) public tokenMapping;\n\n    bytes32[] public tickers;\n\n    modifier tokenExists(bytes32 ticker){\n        require (tokenMapping[ticker].tokenAddress != address(0), \"token does not exist\");\n        _;\n    }\n\n    function addToken(bytes32 ticker, address tokenAddr) onlyOwner external {\n        require (tokenMapping[ticker].tokenAddress == address(0), \"token already exists\");\n        tokenMapping[ticker].tokenAddress = tokenAddr;\n        tickers.push(ticker);\n    }\n\n    function deposit(uint amount, bytes32 ticker) tokenExists(ticker) external {\n        IERC20 tokenInstance = IERC20(tokenMapping[ticker].tokenAddress);\n        tokenInstance.transferFrom(msg.sender, address(this), amount);\n        balances[msg.sender][ticker] =  balances[msg.sender][ticker].add(amount);\n    }\n\n    function withdraw(uint amount, bytes32 ticker) tokenExists(ticker) external {\n        require (balances[msg.sender][ticker] >= amount, \"insufficient funds\");\n        balances[msg.sender][ticker] = balances[msg.sender][ticker].sub(amount);\n        IERC20(tokenMapping[ticker].tokenAddress).transfer(msg.sender, amount);\n    }\n\n\n}",
  "sourcePath": "/Users/giuseppe/Desktop/Ethereum/DEX/contracts/wallet.sol",
  "compiler": {
    "name": "solc",
    "version": "0.8.0+commit.c7dfd78e.Emscripten.clang"
  },
  "schemaVersion": "3.4.3",
  "updatedAt": "2022-03-15T18:15:25.540Z",
  "networkType": "ethereum",
  "devdoc": {
    "kind": "dev",
    "methods": {
      "owner()": {
        "details": "Returns the address of the current owner."
      },
      "renounceOwnership()": {
        "details": "Leaves the contract without owner. It will not be possible to call `onlyOwner` functions anymore. Can only be called by the current owner. NOTE: Renouncing ownership will leave the contract without an owner, thereby removing any functionality that is only available to the owner."
      },
      "transferOwnership(address)": {
        "details": "Transfers ownership of the contract to a new account (`newOwner`). Can only be called by the current owner."
      }
    },
    "version": 1
  },
  "userdoc": {
    "kind": "user",
    "methods": {},
    "version": 1
  }
}